:100000000C9461000C9473000C9473000C947300B6
:100010000C9473000C9473000C9473000C94730094
:100020000C9473000C9473000C9473000C94730084
:100030000C9473000C9473000C9473000C94730074
:100040000C9426010C9473000C9473000C947300B0
:100050000C9473000C9473000C9473000C94730054
:100060000C9473000C94730000000000240027001F
:100070002A0000000000250028002B0000000000DE
:1000800023002600290004040404040404040202DA
:100090000202020203030303030301020408102007
:1000A0004080010204081020010204081020000012
:1000B0000008000201000003040700000000000027
:1000C000000011241FBECFEFD8E0DEBFCDBF21E07E
:1000D000A0E0B1E001C01D92AB30B207E1F70E9491
:1000E00070010C9463020C940000833081F028F4BA
:1000F000813099F08230A9F008958730A9F08830D6
:10010000C9F08430B1F4809180008F7D03C080916C
:1001100080008F7780938000089584B58F7784BDA9
:10012000089584B58F7DFBCF8091B0008F77809349
:10013000B00008958091B0008F7DF9CFCF93DF9309
:10014000282F30E0F901E255FF4F8491F901E6567E
:10015000FF4FD491F901EA57FF4FC491CC23A1F08E
:1001600081110E947500EC2FF0E0EE0FFF1FE458A4
:10017000FF4FA591B491EC91ED2381E090E009F45B
:1001800080E0DF91CF91089580E090E0FACF1F9357
:10019000CF93DF93282F30E0F901E255FF4F849190
:1001A000F901E656FF4FD491F901EA57FF4FC49188
:1001B000CC23A9F0162F81110E947500EC2FF0E0DE
:1001C000EE0FFF1FEE58FF4FA591B4918FB7F89433
:1001D000EC91111108C0D095DE23DC938FBFDF9125
:1001E000CF911F910895DE2BF8CFCF93DF9390E04E
:1001F000FC01E656FF4F24918A579F4FFC018491E2
:100200008823D1F090E0880F991FFC01E859FF4F37
:10021000A591B491FC01EE58FF4FC591D4916111A5
:100220000EC09FB7F8948C91E22FE0958E238C93AB
:100230002881E223E8839FBFDF91CF9108958FB794
:10024000F894EC91E22BEC938FBFF6CF1F920F92B4
:100250000FB60F9211242F933F938F939F93AF93D9
:10026000BF938091070190910801A0910901B0917D
:100270000A013091060123E0230F2D3758F501962E
:10028000A11DB11D209306018093070190930801E1
:10029000A0930901B0930A0180910201909103019A
:1002A000A0910401B09105010196A11DB11D80939B
:1002B000020190930301A0930401B0930501BF9143
:1002C000AF919F918F913F912F910F900FBE0F9003
:1002D0001F90189526E8230F0296A11DB11DD2CFBD
:1002E000CF93DF93CDB7DEB72F970FB6F894DEBF6D
:1002F0000FBECDBF789484B5826084BD84B5816023
:1003000084BD85B5826085BD85B5816085BD8091E0
:100310006E00816080936E00109281008091810058
:100320008260809381008091810081608093810050
:10033000809180008160809380008091B100846012
:100340008093B1008091B00081608093B000809173
:100350007A00846080937A0080917A008260809332
:100360007A0080917A00816080937A0080917A008F
:10037000806880937A001092C10061E088E00E945A
:10038000F50061E089E00E94F50061E08AE00E94EA
:10039000F50061E08BE00E94F50061E08CE00E94D6
:1003A000F50061E08DE00E94F50060E080E00E94D1
:1003B000F5006CE0262E312C7DE0E72EF12CE9E0F3
:1003C0004E2E512CFAE06F2E712CABE0CA2ED12CA0
:1003D00046E0842E912C50E0A52E50E0B52E80E012
:1003E0000E949E00892B09F43FC080E00E949E007D
:1003F000892BD9F7FA82E98228E030E03C832B830D
:100400005E824D8278866F82DA86C9863C862B862C
:10041000FE86ED860091000110910101C801B40132
:100420000E943B02FC013196EE0FFF1F21E030E0FD
:100430002C0F3D1FE20FF31F30813F87880F991F5C
:10044000E1E0F0E0EC0FFD1FE80FF91F60E08081B4
:100450000E94C70061E08F850E94C7000F5F1F4F99
:100460001093010100930001A114B10409F4B7CF66
:100470000E940000ADCF97FB072E16F4009407D022
:1004800077FD09D00E944F0207FC05D03EF49095FD
:1004900081959F4F0895709561957F4F0895AA1B90
:1004A000BB1B51E107C0AA1FBB1FA617B70710F05F
:1004B000A61BB70B881F991F5A95A9F78095909591
:0A04C000BC01CD010895F894FFCFB0
:00000001FF
